{
  "_format": "hh-sol-artifact-1",
  "contractName": "Dex",
  "sourceName": "contracts/Dex.sol",
  "abi": [
    {
      "anonymous": false,
      "inputs": [
        {
          "indexed": true,
          "internalType": "address",
          "name": "previousOwner",
          "type": "address"
        },
        {
          "indexed": true,
          "internalType": "address",
          "name": "newOwner",
          "type": "address"
        }
      ],
      "name": "OwnershipTransferred",
      "type": "event"
    },
    {
      "inputs": [
        {
          "internalType": "bytes32",
          "name": "_ticker",
          "type": "bytes32"
        },
        {
          "internalType": "address",
          "name": "_tokenAddress",
          "type": "address"
        }
      ],
      "name": "addToken",
      "outputs": [],
      "stateMutability": "nonpayable",
      "type": "function"
    },
    {
      "inputs": [
        {
          "internalType": "address",
          "name": "",
          "type": "address"
        },
        {
          "internalType": "bytes32",
          "name": "",
          "type": "bytes32"
        }
      ],
      "name": "balances",
      "outputs": [
        {
          "internalType": "uint256",
          "name": "",
          "type": "uint256"
        }
      ],
      "stateMutability": "view",
      "type": "function"
    },
    {
      "inputs": [
        {
          "internalType": "enum Dex.Side",
          "name": "_side",
          "type": "uint8"
        },
        {
          "internalType": "bytes32",
          "name": "_ticker",
          "type": "bytes32"
        },
        {
          "internalType": "uint256",
          "name": "_amount",
          "type": "uint256"
        },
        {
          "internalType": "uint256",
          "name": "_price",
          "type": "uint256"
        }
      ],
      "name": "createLimitOrder",
      "outputs": [],
      "stateMutability": "nonpayable",
      "type": "function"
    },
    {
      "inputs": [
        {
          "internalType": "enum Dex.Side",
          "name": "_side",
          "type": "uint8"
        },
        {
          "internalType": "bytes32",
          "name": "_ticker",
          "type": "bytes32"
        },
        {
          "internalType": "uint256",
          "name": "_amount",
          "type": "uint256"
        }
      ],
      "name": "createMarketOrder",
      "outputs": [],
      "stateMutability": "nonpayable",
      "type": "function"
    },
    {
      "inputs": [
        {
          "internalType": "uint256",
          "name": "_amount",
          "type": "uint256"
        },
        {
          "internalType": "bytes32",
          "name": "_ticker",
          "type": "bytes32"
        }
      ],
      "name": "deposit",
      "outputs": [],
      "stateMutability": "nonpayable",
      "type": "function"
    },
    {
      "inputs": [],
      "name": "depositEth",
      "outputs": [],
      "stateMutability": "payable",
      "type": "function"
    },
    {
      "inputs": [],
      "name": "getAddressList",
      "outputs": [
        {
          "internalType": "address[]",
          "name": "",
          "type": "address[]"
        }
      ],
      "stateMutability": "view",
      "type": "function"
    },
    {
      "inputs": [
        {
          "internalType": "bytes32",
          "name": "_ticker",
          "type": "bytes32"
        },
        {
          "internalType": "enum Dex.Side",
          "name": "_side",
          "type": "uint8"
        }
      ],
      "name": "getOrderBook",
      "outputs": [
        {
          "components": [
            {
              "internalType": "uint256",
              "name": "id",
              "type": "uint256"
            },
            {
              "internalType": "address",
              "name": "trader",
              "type": "address"
            },
            {
              "internalType": "enum Dex.Side",
              "name": "side",
              "type": "uint8"
            },
            {
              "internalType": "bytes32",
              "name": "ticker",
              "type": "bytes32"
            },
            {
              "internalType": "uint256",
              "name": "price",
              "type": "uint256"
            },
            {
              "internalType": "uint256",
              "name": "amount",
              "type": "uint256"
            },
            {
              "internalType": "uint256",
              "name": "filled",
              "type": "uint256"
            }
          ],
          "internalType": "struct Dex.Order[]",
          "name": "",
          "type": "tuple[]"
        }
      ],
      "stateMutability": "view",
      "type": "function"
    },
    {
      "inputs": [],
      "name": "getTokenList",
      "outputs": [
        {
          "internalType": "bytes32[]",
          "name": "",
          "type": "bytes32[]"
        }
      ],
      "stateMutability": "view",
      "type": "function"
    },
    {
      "inputs": [],
      "name": "nextOrderId",
      "outputs": [
        {
          "internalType": "uint256",
          "name": "",
          "type": "uint256"
        }
      ],
      "stateMutability": "view",
      "type": "function"
    },
    {
      "inputs": [
        {
          "internalType": "bytes32",
          "name": "",
          "type": "bytes32"
        },
        {
          "internalType": "uint8",
          "name": "",
          "type": "uint8"
        },
        {
          "internalType": "uint256",
          "name": "",
          "type": "uint256"
        }
      ],
      "name": "orderbook",
      "outputs": [
        {
          "internalType": "uint256",
          "name": "id",
          "type": "uint256"
        },
        {
          "internalType": "address",
          "name": "trader",
          "type": "address"
        },
        {
          "internalType": "enum Dex.Side",
          "name": "side",
          "type": "uint8"
        },
        {
          "internalType": "bytes32",
          "name": "ticker",
          "type": "bytes32"
        },
        {
          "internalType": "uint256",
          "name": "price",
          "type": "uint256"
        },
        {
          "internalType": "uint256",
          "name": "amount",
          "type": "uint256"
        },
        {
          "internalType": "uint256",
          "name": "filled",
          "type": "uint256"
        }
      ],
      "stateMutability": "view",
      "type": "function"
    },
    {
      "inputs": [],
      "name": "owner",
      "outputs": [
        {
          "internalType": "address",
          "name": "",
          "type": "address"
        }
      ],
      "stateMutability": "view",
      "type": "function"
    },
    {
      "inputs": [],
      "name": "renounceOwnership",
      "outputs": [],
      "stateMutability": "nonpayable",
      "type": "function"
    },
    {
      "inputs": [
        {
          "internalType": "bytes32",
          "name": "",
          "type": "bytes32"
        }
      ],
      "name": "tokenMapping",
      "outputs": [
        {
          "internalType": "bytes32",
          "name": "ticker",
          "type": "bytes32"
        },
        {
          "internalType": "address",
          "name": "tokenAddress",
          "type": "address"
        }
      ],
      "stateMutability": "view",
      "type": "function"
    },
    {
      "inputs": [
        {
          "internalType": "address",
          "name": "newOwner",
          "type": "address"
        }
      ],
      "name": "transferOwnership",
      "outputs": [],
      "stateMutability": "nonpayable",
      "type": "function"
    },
    {
      "inputs": [
        {
          "internalType": "uint256",
          "name": "_amount",
          "type": "uint256"
        },
        {
          "internalType": "bytes32",
          "name": "_ticker",
          "type": "bytes32"
        }
      ],
      "name": "withdraw",
      "outputs": [],
      "stateMutability": "nonpayable",
      "type": "function"
    },
    {
      "inputs": [
        {
          "internalType": "uint256",
          "name": "_amount",
          "type": "uint256"
        }
      ],
      "name": "withdrawEth",
      "outputs": [],
      "stateMutability": "nonpayable",
      "type": "function"
    }
  ],
  "bytecode": "0x608060405260006005553480156200001657600080fd5b50620000376200002b6200003d60201b60201c565b6200004560201b60201c565b62000109565b600033905090565b60008060009054906101000a900473ffffffffffffffffffffffffffffffffffffffff169050816000806101000a81548173ffffffffffffffffffffffffffffffffffffffff021916908373ffffffffffffffffffffffffffffffffffffffff1602179055508173ffffffffffffffffffffffffffffffffffffffff168173ffffffffffffffffffffffffffffffffffffffff167f8be0079c531659141344cd1fd0a4f28419497f9722a3daafe3b4186f6b6457e060405160405180910390a35050565b61365b80620001196000396000f3fe6080604052600436106100fe5760003560e01c80638da5cb5b11610095578063ba58ea6811610064578063ba58ea68146102ef578063c311d0491461032c578063c9630cb014610355578063c9d5c04d1461037e578063f2fde38b146103c1576100fe565b80638da5cb5b146102495780639776aacf1461027457806399ec2f1c1461029d578063a8d2021a146102c6576100fe565b8063667cb4ba116100d1578063667cb4ba146101a05780636f3b62f9146101de578063715018a614610207578063811191301461021e576100fe565b80631f14df6914610103578063273cbaa0146101405780632a58b3301461016b578063439370b114610196575b600080fd5b34801561010f57600080fd5b5061012a6004803603810190610125919061281a565b6103ea565b6040516101379190612873565b60405180910390f35b34801561014c57600080fd5b5061015561040f565b604051610162919061294c565b60405180910390f35b34801561017757600080fd5b50610180610467565b60405161018d9190612873565b60405180910390f35b61019e61046d565b005b3480156101ac57600080fd5b506101c760048036038101906101c2919061296e565b6104f6565b6040516101d59291906129b9565b60405180910390f35b3480156101ea57600080fd5b5061020560048036038101906102009190612a33565b61053a565b005b34801561021357600080fd5b5061021c6108d9565b005b34801561022a57600080fd5b50610233610961565b6040516102409190612b58565b60405180910390f35b34801561025557600080fd5b5061025e6109ef565b60405161026b9190612b7a565b60405180910390f35b34801561028057600080fd5b5061029b60048036038101906102969190612b95565b610a18565b005b3480156102a957600080fd5b506102c460048036038101906102bf9190612bd5565b610bb6565b005b3480156102d257600080fd5b506102ed60048036038101906102e89190612c28565b611613565b005b3480156102fb57600080fd5b5061031660048036038101906103119190612c68565b6118cd565b6040516103239190612e6b565b60405180910390f35b34801561033857600080fd5b50610353600480360381019061034e9190612e8d565b611a2c565b005b34801561036157600080fd5b5061037c60048036038101906103779190612c28565b611bb6565b005b34801561038a57600080fd5b506103a560048036038101906103a09190612ef3565b611ddf565b6040516103b89796959493929190612f55565b60405180910390f35b3480156103cd57600080fd5b506103e860048036038101906103e39190612fc4565b611e78565b005b6004602052816000526040600020602052806000526040600020600091509150505481565b6060600280548060200260200160405190810160405280929190818152602001828054801561045d57602002820191906000526020600020905b815481526020019060010190808311610449575b5050505050905090565b60055481565b34600460003373ffffffffffffffffffffffffffffffffffffffff1673ffffffffffffffffffffffffffffffffffffffff16815260200190815260200160002060007f4554480000000000000000000000000000000000000000000000000000000000815260200190815260200160002060008282546104ed9190613020565b92505081905550565b60016020528060005260406000206000915090508060000154908060010160009054906101000a900473ffffffffffffffffffffffffffffffffffffffff16905082565b6000600181111561054e5761054d612ce3565b5b84600181111561056157610560612ce3565b5b141561063d57670de0b6b3a7640000818361057c9190613076565b61058691906130ff565b600460003373ffffffffffffffffffffffffffffffffffffffff1673ffffffffffffffffffffffffffffffffffffffff16815260200190815260200160002060007f45544800000000000000000000000000000000000000000000000000000000008152602001908152602001600020541015610638576040517f08c379a000000000000000000000000000000000000000000000000000000000815260040161062f9061318d565b60405180910390fd5b6106fe565b6001808111156106505761064f612ce3565b5b84600181111561066357610662612ce3565b5b14156106fd5781600460003373ffffffffffffffffffffffffffffffffffffffff1673ffffffffffffffffffffffffffffffffffffffff16815260200190815260200160002060008581526020019081526020016000205410156106fc576040517f08c379a00000000000000000000000000000000000000000000000000000000081526004016106f3906131f9565b60405180910390fd5b5b5b600060066000858152602001908152602001600020600086600181111561072857610727612ce3565b5b60ff1660ff1681526020019081526020016000209050806040518060e0016040528060055481526020013373ffffffffffffffffffffffffffffffffffffffff16815260200187600181111561078157610780612ce3565b5b8152602001868152602001848152602001858152602001600081525090806001815401808255809150506001900390600052602060002090600602016000909190919091506000820151816000015560208201518160010160006101000a81548173ffffffffffffffffffffffffffffffffffffffff021916908373ffffffffffffffffffffffffffffffffffffffff16021790555060408201518160010160146101000a81548160ff0219169083600181111561084257610841612ce3565b5b0217905550606082015181600201556080820151816003015560a0820151816004015560c0820151816005015550506000600181111561088557610884612ce3565b5b85600181111561089857610897612ce3565b5b14156108ae576108a9816000611f70565b6108ba565b6108b9816001611f70565b5b600560008154809291906108cd90613219565b91905055505050505050565b6108e1612689565b73ffffffffffffffffffffffffffffffffffffffff166108ff6109ef565b73ffffffffffffffffffffffffffffffffffffffff1614610955576040517f08c379a000000000000000000000000000000000000000000000000000000000815260040161094c906132ae565b60405180910390fd5b61095f6000612691565b565b606060038054806020026020016040519081016040528092919081815260200182805480156109e557602002820191906000526020600020905b8160009054906101000a900473ffffffffffffffffffffffffffffffffffffffff1673ffffffffffffffffffffffffffffffffffffffff168152602001906001019080831161099b575b5050505050905090565b60008060009054906101000a900473ffffffffffffffffffffffffffffffffffffffff16905090565b610a20612689565b73ffffffffffffffffffffffffffffffffffffffff16610a3e6109ef565b73ffffffffffffffffffffffffffffffffffffffff1614610a94576040517f08c379a0000000000000000000000000000000000000000000000000000000008152600401610a8b906132ae565b60405180910390fd5b60405180604001604052808381526020018273ffffffffffffffffffffffffffffffffffffffff16815250600160008481526020019081526020016000206000820151816000015560208201518160010160006101000a81548173ffffffffffffffffffffffffffffffffffffffff021916908373ffffffffffffffffffffffffffffffffffffffff16021790555090505060028290806001815401808255809150506001900390600052602060002001600090919091909150556003819080600181540180825580915050600190039060005260206000200160009091909190916101000a81548173ffffffffffffffffffffffffffffffffffffffff021916908373ffffffffffffffffffffffffffffffffffffffff1602179055505050565b600180811115610bc957610bc8612ce3565b5b836001811115610bdc57610bdb612ce3565b5b1415610c765780600460003373ffffffffffffffffffffffffffffffffffffffff1673ffffffffffffffffffffffffffffffffffffffff1681526020019081526020016000206000848152602001908152602001600020541015610c75576040517f08c379a0000000000000000000000000000000000000000000000000000000008152600401610c6c906131f9565b60405180910390fd5b5b600080846001811115610c8c57610c8b612ce3565b5b60ff1614610c9b576000610c9e565b60015b905060006006600085815260200190815260200160002060008360ff1660ff1681526020019081526020016000209050600080600090505b828054905081108015610ce857508482105b156113bf5760008286610cfb91906132ce565b90506000848381548110610d1257610d11613302565b5b906000526020600020906006020160050154858481548110610d3757610d36613302565b5b906000526020600020906006020160040154610d5391906132ce565b90506000828210610d6657829050610d6a565b8190505b8085610d769190613020565b945080868581548110610d8c57610d8b613302565b5b90600052602060002090600602016005016000828254610dac9190613020565b925050819055506000670de0b6b3a7640000878681548110610dd157610dd0613302565b5b90600052602060002090600602016003015483610dee9190613076565b610df891906130ff565b905060006001811115610e0e57610e0d612ce3565b5b8b6001811115610e2157610e20612ce3565b5b14156111435780600460003373ffffffffffffffffffffffffffffffffffffffff1673ffffffffffffffffffffffffffffffffffffffff16815260200190815260200160002060007f45544800000000000000000000000000000000000000000000000000000000008152602001908152602001600020541015610eda576040517f08c379a0000000000000000000000000000000000000000000000000000000008152600401610ed19061318d565b60405180910390fd5b81600460003373ffffffffffffffffffffffffffffffffffffffff1673ffffffffffffffffffffffffffffffffffffffff16815260200190815260200160002060008c81526020019081526020016000206000828254610f3a9190613020565b9250508190555080600460003373ffffffffffffffffffffffffffffffffffffffff1673ffffffffffffffffffffffffffffffffffffffff16815260200190815260200160002060007f455448000000000000000000000000000000000000000000000000000000000081526020019081526020016000206000828254610fc191906132ce565b925050819055508160046000898881548110610fe057610fdf613302565b5b906000526020600020906006020160010160009054906101000a900473ffffffffffffffffffffffffffffffffffffffff1673ffffffffffffffffffffffffffffffffffffffff1673ffffffffffffffffffffffffffffffffffffffff16815260200190815260200160002060008c8152602001908152602001600020600082825461106c91906132ce565b92505081905550806004600089888154811061108b5761108a613302565b5b906000526020600020906006020160010160009054906101000a900473ffffffffffffffffffffffffffffffffffffffff1673ffffffffffffffffffffffffffffffffffffffff1673ffffffffffffffffffffffffffffffffffffffff16815260200190815260200160002060007f4554480000000000000000000000000000000000000000000000000000000000815260200190815260200160002060008282546111379190613020565b925050819055506113a8565b81600460003373ffffffffffffffffffffffffffffffffffffffff1673ffffffffffffffffffffffffffffffffffffffff16815260200190815260200160002060008c815260200190815260200160002060008282546111a391906132ce565b9250508190555080600460003373ffffffffffffffffffffffffffffffffffffffff1673ffffffffffffffffffffffffffffffffffffffff16815260200190815260200160002060007f45544800000000000000000000000000000000000000000000000000000000008152602001908152602001600020600082825461122a9190613020565b92505081905550816004600089888154811061124957611248613302565b5b906000526020600020906006020160010160009054906101000a900473ffffffffffffffffffffffffffffffffffffffff1673ffffffffffffffffffffffffffffffffffffffff1673ffffffffffffffffffffffffffffffffffffffff16815260200190815260200160002060008c815260200190815260200160002060008282546112d59190613020565b9250508190555080600460008988815481106112f4576112f3613302565b5b906000526020600020906006020160010160009054906101000a900473ffffffffffffffffffffffffffffffffffffffff1673ffffffffffffffffffffffffffffffffffffffff1673ffffffffffffffffffffffffffffffffffffffff16815260200190815260200160002060007f4554480000000000000000000000000000000000000000000000000000000000815260200190815260200160002060008282546113a091906132ce565b925050819055505b5050505080806113b790613219565b915050610cd6565b505b6000828054905011801561141e5750816000815481106113e4576113e3613302565b5b9060005260206000209060060201600501548260008154811061140a57611409613302565b5b906000526020600020906006020160040154145b1561160b5760005b6001838054905061143791906132ce565b811015611578578260018261144c9190613020565b8154811061145d5761145c613302565b5b906000526020600020906006020183828154811061147e5761147d613302565b5b9060005260206000209060060201600082015481600001556001820160009054906101000a900473ffffffffffffffffffffffffffffffffffffffff168160010160006101000a81548173ffffffffffffffffffffffffffffffffffffffff021916908373ffffffffffffffffffffffffffffffffffffffff1602179055506001820160149054906101000a900460ff168160010160146101000a81548160ff0219169083600181111561153557611534612ce3565b5b021790555060028201548160020155600382015481600301556004820154816004015560058201548160050155905050808061157090613219565b915050611426565b508180548061158a57611589613331565b5b60019003818190600052602060002090600602016000808201600090556001820160006101000a81549073ffffffffffffffffffffffffffffffffffffffff02191690556001820160146101000a81549060ff02191690556002820160009055600382016000905560048201600090556005820160009055505090556113c1565b505050505050565b80600073ffffffffffffffffffffffffffffffffffffffff166001600083815260200190815260200160002060010160009054906101000a900473ffffffffffffffffffffffffffffffffffffffff1673ffffffffffffffffffffffffffffffffffffffff1614156116ba576040517f08c379a00000000000000000000000000000000000000000000000000000000081526004016116b1906133ac565b60405180910390fd5b82600460003373ffffffffffffffffffffffffffffffffffffffff1673ffffffffffffffffffffffffffffffffffffffff168152602001908152602001600020600084815260200190815260200160002054101561174d576040517f08c379a000000000000000000000000000000000000000000000000000000000815260040161174490613418565b60405180910390fd5b6117b083600460003373ffffffffffffffffffffffffffffffffffffffff1673ffffffffffffffffffffffffffffffffffffffff16815260200190815260200160002060008581526020019081526020016000205461275590919063ffffffff16565b600460003373ffffffffffffffffffffffffffffffffffffffff1673ffffffffffffffffffffffffffffffffffffffff1681526020019081526020016000206000848152602001908152602001600020819055506001600083815260200190815260200160002060010160009054906101000a900473ffffffffffffffffffffffffffffffffffffffff1673ffffffffffffffffffffffffffffffffffffffff1663a9059cbb33856040518363ffffffff1660e01b8152600401611875929190613438565b602060405180830381600087803b15801561188f57600080fd5b505af11580156118a3573d6000803e3d6000fd5b505050506040513d601f19601f820116820180604052508101906118c79190613499565b50505050565b60606006600084815260200190815260200160002060008360018111156118f7576118f6612ce3565b5b60ff1660ff168152602001908152602001600020805480602002602001604051908101604052809291908181526020016000905b82821015611a2057838290600052602060002090600602016040518060e0016040529081600082015481526020016001820160009054906101000a900473ffffffffffffffffffffffffffffffffffffffff1673ffffffffffffffffffffffffffffffffffffffff1673ffffffffffffffffffffffffffffffffffffffff1681526020016001820160149054906101000a900460ff1660018111156119d3576119d2612ce3565b5b60018111156119e5576119e4612ce3565b5b81526020016002820154815260200160038201548152602001600482015481526020016005820154815250508152602001906001019061192b565b50505050905092915050565b80600460003373ffffffffffffffffffffffffffffffffffffffff1673ffffffffffffffffffffffffffffffffffffffff16815260200190815260200160002060007f45544800000000000000000000000000000000000000000000000000000000008152602001908152602001600020541015611adf576040517f08c379a0000000000000000000000000000000000000000000000000000000008152600401611ad690613512565b60405180910390fd5b80600460003373ffffffffffffffffffffffffffffffffffffffff1673ffffffffffffffffffffffffffffffffffffffff16815260200190815260200160002060007f455448000000000000000000000000000000000000000000000000000000000081526020019081526020016000206000828254611b5f91906132ce565b9250508190555060003390508073ffffffffffffffffffffffffffffffffffffffff166108fc839081150290604051600060405180830381858888f19350505050158015611bb1573d6000803e3d6000fd5b505050565b80600073ffffffffffffffffffffffffffffffffffffffff166001600083815260200190815260200160002060010160009054906101000a900473ffffffffffffffffffffffffffffffffffffffff1673ffffffffffffffffffffffffffffffffffffffff161415611c5d576040517f08c379a0000000000000000000000000000000000000000000000000000000008152600401611c54906133ac565b60405180910390fd5b6001600083815260200190815260200160002060010160009054906101000a900473ffffffffffffffffffffffffffffffffffffffff1673ffffffffffffffffffffffffffffffffffffffff166323b872dd3330866040518463ffffffff1660e01b8152600401611cd093929190613532565b602060405180830381600087803b158015611cea57600080fd5b505af1158015611cfe573d6000803e3d6000fd5b505050506040513d601f19601f82011682018060405250810190611d229190613499565b50611d8683600460003373ffffffffffffffffffffffffffffffffffffffff1673ffffffffffffffffffffffffffffffffffffffff16815260200190815260200160002060008581526020019081526020016000205461276b90919063ffffffff16565b600460003373ffffffffffffffffffffffffffffffffffffffff1673ffffffffffffffffffffffffffffffffffffffff168152602001908152602001600020600084815260200190815260200160002081905550505050565b60066020528260005260406000206020528160005260406000208181548110611e0757600080fd5b906000526020600020906006020160009250925050508060000154908060010160009054906101000a900473ffffffffffffffffffffffffffffffffffffffff16908060010160149054906101000a900460ff16908060020154908060030154908060040154908060050154905087565b611e80612689565b73ffffffffffffffffffffffffffffffffffffffff16611e9e6109ef565b73ffffffffffffffffffffffffffffffffffffffff1614611ef4576040517f08c379a0000000000000000000000000000000000000000000000000000000008152600401611eeb906132ae565b60405180910390fd5b600073ffffffffffffffffffffffffffffffffffffffff168173ffffffffffffffffffffffffffffffffffffffff161415611f64576040517f08c379a0000000000000000000000000000000000000000000000000000000008152600401611f5b906135db565b60405180910390fd5b611f6d81612691565b50565b806122ff57600060018380549050611f8891906132ce565b90505b60008111156122f95782600182611fa291906132ce565b81548110611fb357611fb2613302565b5b906000526020600020906006020160030154838281548110611fd857611fd7613302565b5b90600052602060002090600602016003015411156122e65760008360018361200091906132ce565b8154811061201157612010613302565b5b90600052602060002090600602016040518060e0016040529081600082015481526020016001820160009054906101000a900473ffffffffffffffffffffffffffffffffffffffff1673ffffffffffffffffffffffffffffffffffffffff1673ffffffffffffffffffffffffffffffffffffffff1681526020016001820160149054906101000a900460ff1660018111156120af576120ae612ce3565b5b60018111156120c1576120c0612ce3565b5b8152602001600282015481526020016003820154815260200160048201548152602001600582015481525050905083828154811061210257612101613302565b5b90600052602060002090600602018460018461211e91906132ce565b8154811061212f5761212e613302565b5b9060005260206000209060060201600082015481600001556001820160009054906101000a900473ffffffffffffffffffffffffffffffffffffffff168160010160006101000a81548173ffffffffffffffffffffffffffffffffffffffff021916908373ffffffffffffffffffffffffffffffffffffffff1602179055506001820160149054906101000a900460ff168160010160146101000a81548160ff021916908360018111156121e6576121e5612ce3565b5b0217905550600282015481600201556003820154816003015560048201548160040155600582015481600501559050508084838154811061222a57612229613302565b5b90600052602060002090600602016000820151816000015560208201518160010160006101000a81548173ffffffffffffffffffffffffffffffffffffffff021916908373ffffffffffffffffffffffffffffffffffffffff16021790555060408201518160010160146101000a81548160ff021916908360018111156122b4576122b3612ce3565b5b0217905550606082015181600201556080820151816003015560a0820151816004015560c08201518160050155905050505b80806122f1906135fb565b915050611f8b565b50612685565b60006001838054905061231291906132ce565b90505b6000811115612683578260018261232c91906132ce565b8154811061233d5761233c613302565b5b90600052602060002090600602016003015483828154811061236257612361613302565b5b906000526020600020906006020160030154101561267057600083828154811061238f5761238e613302565b5b90600052602060002090600602016040518060e0016040529081600082015481526020016001820160009054906101000a900473ffffffffffffffffffffffffffffffffffffffff1673ffffffffffffffffffffffffffffffffffffffff1673ffffffffffffffffffffffffffffffffffffffff1681526020016001820160149054906101000a900460ff16600181111561242d5761242c612ce3565b5b600181111561243f5761243e612ce3565b5b815260200160028201548152602001600382015481526020016004820154815260200160058201548152505090508360018361247b91906132ce565b8154811061248c5761248b613302565b5b90600052602060002090600602018483815481106124ad576124ac613302565b5b9060005260206000209060060201600082015481600001556001820160009054906101000a900473ffffffffffffffffffffffffffffffffffffffff168160010160006101000a81548173ffffffffffffffffffffffffffffffffffffffff021916908373ffffffffffffffffffffffffffffffffffffffff1602179055506001820160149054906101000a900460ff168160010160146101000a81548160ff0219169083600181111561256457612563612ce3565b5b02179055506002820154816002015560038201548160030155600482015481600401556005820154816005015590505080846001846125a391906132ce565b815481106125b4576125b3613302565b5b90600052602060002090600602016000820151816000015560208201518160010160006101000a81548173ffffffffffffffffffffffffffffffffffffffff021916908373ffffffffffffffffffffffffffffffffffffffff16021790555060408201518160010160146101000a81548160ff0219169083600181111561263e5761263d612ce3565b5b0217905550606082015181600201556080820151816003015560a0820151816004015560c08201518160050155905050505b808061267b906135fb565b915050612315565b505b5050565b600033905090565b60008060009054906101000a900473ffffffffffffffffffffffffffffffffffffffff169050816000806101000a81548173ffffffffffffffffffffffffffffffffffffffff021916908373ffffffffffffffffffffffffffffffffffffffff1602179055508173ffffffffffffffffffffffffffffffffffffffff168173ffffffffffffffffffffffffffffffffffffffff167f8be0079c531659141344cd1fd0a4f28419497f9722a3daafe3b4186f6b6457e060405160405180910390a35050565b6000818361276391906132ce565b905092915050565b600081836127799190613020565b905092915050565b600080fd5b600073ffffffffffffffffffffffffffffffffffffffff82169050919050565b60006127b182612786565b9050919050565b6127c1816127a6565b81146127cc57600080fd5b50565b6000813590506127de816127b8565b92915050565b6000819050919050565b6127f7816127e4565b811461280257600080fd5b50565b600081359050612814816127ee565b92915050565b6000806040838503121561283157612830612781565b5b600061283f858286016127cf565b925050602061285085828601612805565b9150509250929050565b6000819050919050565b61286d8161285a565b82525050565b60006020820190506128886000830184612864565b92915050565b600081519050919050565b600082825260208201905092915050565b6000819050602082019050919050565b6128c3816127e4565b82525050565b60006128d583836128ba565b60208301905092915050565b6000602082019050919050565b60006128f98261288e565b6129038185612899565b935061290e836128aa565b8060005b8381101561293f57815161292688826128c9565b9750612931836128e1565b925050600181019050612912565b5085935050505092915050565b6000602082019050818103600083015261296681846128ee565b905092915050565b60006020828403121561298457612983612781565b5b600061299284828501612805565b91505092915050565b6129a4816127e4565b82525050565b6129b3816127a6565b82525050565b60006040820190506129ce600083018561299b565b6129db60208301846129aa565b9392505050565b600281106129ef57600080fd5b50565b600081359050612a01816129e2565b92915050565b612a108161285a565b8114612a1b57600080fd5b50565b600081359050612a2d81612a07565b92915050565b60008060008060808587031215612a4d57612a4c612781565b5b6000612a5b878288016129f2565b9450506020612a6c87828801612805565b9350506040612a7d87828801612a1e565b9250506060612a8e87828801612a1e565b91505092959194509250565b600081519050919050565b600082825260208201905092915050565b6000819050602082019050919050565b612acf816127a6565b82525050565b6000612ae18383612ac6565b60208301905092915050565b6000602082019050919050565b6000612b0582612a9a565b612b0f8185612aa5565b9350612b1a83612ab6565b8060005b83811015612b4b578151612b328882612ad5565b9750612b3d83612aed565b925050600181019050612b1e565b5085935050505092915050565b60006020820190508181036000830152612b728184612afa565b905092915050565b6000602082019050612b8f60008301846129aa565b92915050565b60008060408385031215612bac57612bab612781565b5b6000612bba85828601612805565b9250506020612bcb858286016127cf565b9150509250929050565b600080600060608486031215612bee57612bed612781565b5b6000612bfc868287016129f2565b9350506020612c0d86828701612805565b9250506040612c1e86828701612a1e565b9150509250925092565b60008060408385031215612c3f57612c3e612781565b5b6000612c4d85828601612a1e565b9250506020612c5e85828601612805565b9150509250929050565b60008060408385031215612c7f57612c7e612781565b5b6000612c8d85828601612805565b9250506020612c9e858286016129f2565b9150509250929050565b600081519050919050565b600082825260208201905092915050565b6000819050602082019050919050565b612cdd8161285a565b82525050565b7f4e487b7100000000000000000000000000000000000000000000000000000000600052602160045260246000fd5b60028110612d2357612d22612ce3565b5b50565b6000819050612d3482612d12565b919050565b6000612d4482612d26565b9050919050565b612d5481612d39565b82525050565b60e082016000820151612d706000850182612cd4565b506020820151612d836020850182612ac6565b506040820151612d966040850182612d4b565b506060820151612da960608501826128ba565b506080820151612dbc6080850182612cd4565b5060a0820151612dcf60a0850182612cd4565b5060c0820151612de260c0850182612cd4565b50505050565b6000612df48383612d5a565b60e08301905092915050565b6000602082019050919050565b6000612e1882612ca8565b612e228185612cb3565b9350612e2d83612cc4565b8060005b83811015612e5e578151612e458882612de8565b9750612e5083612e00565b925050600181019050612e31565b5085935050505092915050565b60006020820190508181036000830152612e858184612e0d565b905092915050565b600060208284031215612ea357612ea2612781565b5b6000612eb184828501612a1e565b91505092915050565b600060ff82169050919050565b612ed081612eba565b8114612edb57600080fd5b50565b600081359050612eed81612ec7565b92915050565b600080600060608486031215612f0c57612f0b612781565b5b6000612f1a86828701612805565b9350506020612f2b86828701612ede565b9250506040612f3c86828701612a1e565b9150509250925092565b612f4f81612d39565b82525050565b600060e082019050612f6a600083018a612864565b612f7760208301896129aa565b612f846040830188612f46565b612f91606083018761299b565b612f9e6080830186612864565b612fab60a0830185612864565b612fb860c0830184612864565b98975050505050505050565b600060208284031215612fda57612fd9612781565b5b6000612fe8848285016127cf565b91505092915050565b7f4e487b7100000000000000000000000000000000000000000000000000000000600052601160045260246000fd5b600061302b8261285a565b91506130368361285a565b9250827fffffffffffffffffffffffffffffffffffffffffffffffffffffffffffffffff0382111561306b5761306a612ff1565b5b828201905092915050565b60006130818261285a565b915061308c8361285a565b9250817fffffffffffffffffffffffffffffffffffffffffffffffffffffffffffffffff04831182151516156130c5576130c4612ff1565b5b828202905092915050565b7f4e487b7100000000000000000000000000000000000000000000000000000000600052601260045260246000fd5b600061310a8261285a565b91506131158361285a565b925082613125576131246130d0565b5b828204905092915050565b600082825260208201905092915050565b7f496e73756666696369656e742062616c616e6365000000000000000000000000600082015250565b6000613177601483613130565b915061318282613141565b602082019050919050565b600060208201905081810360008301526131a68161316a565b9050919050565b7f496e73756666696369656e7420746f6b656e7300000000000000000000000000600082015250565b60006131e3601383613130565b91506131ee826131ad565b602082019050919050565b60006020820190508181036000830152613212816131d6565b9050919050565b60006132248261285a565b91507fffffffffffffffffffffffffffffffffffffffffffffffffffffffffffffffff82141561325757613256612ff1565b5b600182019050919050565b7f4f776e61626c653a2063616c6c6572206973206e6f7420746865206f776e6572600082015250565b6000613298602083613130565b91506132a382613262565b602082019050919050565b600060208201905081810360008301526132c78161328b565b9050919050565b60006132d98261285a565b91506132e48361285a565b9250828210156132f7576132f6612ff1565b5b828203905092915050565b7f4e487b7100000000000000000000000000000000000000000000000000000000600052603260045260246000fd5b7f4e487b7100000000000000000000000000000000000000000000000000000000600052603160045260246000fd5b7f546f6b656e206973206e6f7420696e697469616c697a65640000000000000000600082015250565b6000613396601883613130565b91506133a182613360565b602082019050919050565b600060208201905081810360008301526133c581613389565b9050919050565b7f42616c616e6365206e6f742073756666696369656e7400000000000000000000600082015250565b6000613402601683613130565b915061340d826133cc565b602082019050919050565b60006020820190508181036000830152613431816133f5565b9050919050565b600060408201905061344d60008301856129aa565b61345a6020830184612864565b9392505050565b60008115159050919050565b61347681613461565b811461348157600080fd5b50565b6000815190506134938161346d565b92915050565b6000602082840312156134af576134ae612781565b5b60006134bd84828501613484565b91505092915050565b7f4e6f7420656e6f7567682062616c616e63650000000000000000000000000000600082015250565b60006134fc601283613130565b9150613507826134c6565b602082019050919050565b6000602082019050818103600083015261352b816134ef565b9050919050565b600060608201905061354760008301866129aa565b61355460208301856129aa565b6135616040830184612864565b949350505050565b7f4f776e61626c653a206e6577206f776e657220697320746865207a65726f206160008201527f6464726573730000000000000000000000000000000000000000000000000000602082015250565b60006135c5602683613130565b91506135d082613569565b604082019050919050565b600060208201905081810360008301526135f4816135b8565b9050919050565b60006136068261285a565b9150600082141561361a57613619612ff1565b5b60018203905091905056fea2646970667358221220517d33e64e8c4ceb98fbecd6de5868005f6cd4ce4dd59fd3425df33349f536c964736f6c63430008090033",
  "linkReferences": {},
  "deployedLinkReferences": {}
}